:103E0000112484B714BE81FFE1D085E08093810046
:103E100082E08093C00088E18093C10086E08093B7
:103E2000C2008FE08093C4008EE0BAD0259A86E06D
:103E30002EE33EEF3093850020938400B09AB09B30
:103E4000FECF1D9AA8958150A9F7CC24DD244424E7
:103E5000439435E0632E21E1522E93E0792E94D0E5
:103E6000813461F491D0082FA1D0023811F00138CB
:103E700011F484E001C083E07FD07BC0823411F470
:103E800084E103C0853419F485E098D072C085358B
:103E900041F47AD0A82E78D0B82EAA0CBB1C6501AC
:103EA00067C0863521F484E089D080E0E5CF843690
:103EB00009F039C069D068D0082F66D020E0C2165A
:103EC00028E3D20618F4F60177BEE895C0E0D1E009
:103ED0005BD089930C17E1F7F0E0CF16F8E3DF062B
:103EE00018F0F60177BEE89561D007B600FCFDCF6B
:103EF000C601A0E0B1E08C9011969C9011971296AB
:103F0000FC01040147BEE89511240296F1E0A038B7
:103F1000BF0789F7F60167BEE89507B600FCFDCF3D
:103F200057BEE89526C08437B1F42ED02DD0E82EA8
:103F30002BD03CD0F601FE2C8F010F5F1F4F8491D8
:103F40001BD0FA94F801C1F70894C11CD11CEA9463
:103F5000CE0CD11C0EC0853739F428D08EE10CD0A0
:103F600084E90AD086E088CF813511F488E018D042
:103F70001DD080E101D073CF982F8091C00085FFC4
:103F8000FCCF9093C60008958091C00087FFFCCFBE
:103F90008091C00084FD01C0A8958091C60008955D
:103FA000E0E6F0E098E1908380830895EDDF8032D1
:103FB00019F088E0F5DFFFCF84E1DECF1F93182FE3
:103FC000E3DF1150E9F7F2DF1F91089580E0E8DFA9
:063FD000EE27FF27099413
:023FFE000404B9
:0400000300003E00BB
:00000001FF
